:100000000C942A000C943C000C943C000C943C0092
:100010000C943C000C943C000C943C000C943C0070
:100020000C943C000C943C000C943C000C943C0060
:100030000C943C000C943C000C943C000C943C0050
:100040000C943C000C943C000C943C000C943C0040
:100050000C943C0011241FBECFE5D8E0DEBFCDBF1D
:1000600020E0A0E6B0E001C01D92A136B207E1F7A2
:100070000E946D000C94BE000C940000CF93DF939F
:1000800000D000D0CDB7DEB719821A821B821C8245
:1000900089836A834B83CE0101960E9479000F9079
:1000A0000F900F900F90DF91CF910895CF93DF9332
:1000B00000D000D0CDB7DEB719821A821B821C8215
:1000C00089836A83CE0101960E94A5000F900F904C
:1000D0000F900F90DF91CF91089540E065E080E3AD
:1000E0000E943E0065E080E30E945600809360001D
:1000F000F9CFFC01A081B0E08281811111C011967D
:100100002C91119781E090E0018002C0880F991F27
:100110000A94E2F78095822311968C9313820895B6
:10012000813081F411962C91119781E090E001804B
:1001300002C0880F991F0A94E2F7822B11968C93C4
:100140001382089581E083830895DC01EC91F0E04F
:10015000408111965C9181E090E09C01052E02C0E7
:10016000220F331F0A94E2F7842F90E08223932317
:1001700002C0959587955A95E2F70895F894FFCFB8
:00000001FF
