:100000000C942A000C9447000C9447000C94470071
:100010000C9447000C9447000C9447000C94470044
:100020000C9447000C9447000C9447000C94470034
:100030000C9447000C9447000C9447000C94470024
:100040000C94F8000C9447000C9447000C94470063
:100050000C94470011241FBECFE5D8E0DEBFCDBF12
:1000600010E0A0E6B0E0E8E2F3E002C005900D92F7
:10007000A836B107D9F720E0A8E6B0E001C01D928C
:10008000AA36B207E1F70E94D1000C9492010C94B9
:100090000000CF93DF9300D000D0CDB7DEB7198238
:1000A0001A821B821C8289836A834B83CE0101964C
:1000B0000E9421010F900F900F900F90DF91CF9130
:1000C0000895CF93DF9300D000D0CDB7DEB719826B
:1000D0001A821B821C8289836A83CE0101960E9448
:1000E0004D010F900F900F900F90DF91CF910895D9
:1000F000CF93DF9300D000D0CDB7DEB719821A823C
:100100001B821C8289836A83642FCE0101960E9420
:1001100066010F900F900F900F90DF91CF9108958F
:100120000F931F93CF93DF938C01C0E0D0E00BC0FF
:10013000FE01EE0FFF1FE00FF11F41E061818081A2
:100140000E9449002196C430D10594F3DF91CF91EC
:100150001F910F910895FF920F931F93CF93DF93F9
:100160008C01F62EC0E0D0E013C04F2D50E00C2ED5
:1001700002C0559547950A94E2F74170FE01EE0FD3
:10018000FF1FE00FF11F618180810E94780021969E
:10019000C430D10554F3DF91CF911F910F91FF909F
:1001A000089540E060E083E30E94490080E690E02B
:1001B0000E949000C0E0D0E060E083E30E94610014
:1001C000813039F4D11105C0CF5FCA3039F0D1E0A8
:1001D00009C0811107C0D13029F403C0C0E0D1E0CB
:1001E00001C0D0E06C2F80E690E00E94AB00E4CF2D
:1001F0001F920F920FB60F9211242F933F934F939C
:100200005F936F937F938F939F93AF93BF93EF937E
:10021000FF93E0916800F0916900309709F009952B
:10022000FF91EF91BF91AF919F918F917F916F91CE
:100230005F914F913F912F910F900FBE0F901F90A4
:100240001895FC01A081B0E08281811111C0119646
:100250002C91119781E090E0018002C0880F991FD6
:100260000A94E2F78095822311968C931382089565
:10027000813081F411962C91119781E090E00180FA
:1002800002C0880F991F0A94E2F7822B11968C9373
:100290001382089581E083830895DC01EC91F0E0FE
:1002A000408111965C9181E090E09C01052E02C096
:1002B000220F331F0A94E2F7842F90E082239323C6
:1002C00002C0959587955A95E2F70895DC01EC9167
:1002D000F0E0613081F4228181E090E011960C9091
:1002E000119702C0880F991F0A94E2F7822B82832C
:1002F00013961C920895611111C0228181E090E053
:1003000011960C90119702C0880F991F0A94E2F77A
:1003100080958223828313961C92089581E0139620
:080320008C930895F894FFCFBF
:080328003900390139023903E3
:00000001FF
